:020000020000FC
:040000000C94B605A1
:04001C000C94240616
:100034000C94D6050F93DF93CF93FF93EF93DEB722
:10004400CDB70885F1E0E0E7E00F00E0F01F049190
:10005400003110F4088702C001E00987EF91FF9195
:10006400CF91DF910F9108950F931F93DF93CF9357
:10007400FF93EF93DEB7CDB7FA85E98500E00F93E0
:1000840001910F93D7DF1F910F91003081F4110F6D
:10009400110F110F110F00E00F9300810F93CADFAE
:1000A4000F91102B0F91003011F4198702C001E059
:1000B4000B87EF91FF91CF91DF911F910F910895DD
:1000C4000F931F932F93DF93CF93FF93EF93DEB799
:1000D400CDB7FB85EA8500E00F93FF93EF93C4DF70
:1000E4001F910F910F91003071F4329600E00F933D
:1000F400FF93EF93B9DF2F910F910F91003019F413
:100104001B872A8702C001E00C87EF91FF91CF91F2
:10011400DF912F911F910F9108950F93DF93CF9348
:10012400DEB7CDB70E810A3010F0095C01C0005D66
:100134000E83CF91DF910F9108950F931F93DF9357
:10014400CF93DEB7CDB70F81102F1F701F93E5DF5C
:100154001F911F83102F107F12951F93DEDF1F91B5
:100164001887CF91DF911F910F910895FFFFFFFF33
:10017400FFFFFFFFFFFFFFFFFFFFFFFFFFFFFFFF8B
:10018400FFFFFFFFFFFFFFFFFFFFFFFFFFFFFFFF7B
:10019400FFFFFFFFFFFFFFFFFFFFFFFF0001020361
:1001A400040506070809FFFFFFFFFFFFFF0A0B0C0A
:1001B4000D0E0FFFFFFFFFFFFFFFFFFFFFFFFFFF1E
:1001C400FFFFFFFFFFFFFFFFFFFFFFFFFF0A0B0C17
:1001D4000D0E0FFFFFFFFFFFFFFFFFFFFFFFFFFFFE
:1001E400FFFFFFFFFFFFFFFFFFFFFFFFFFFFFFFF1B
:1001F400FFFFFFFFFFFFFFFFFFFFFFFFFFFFFFFF0B
:10020400FFFFFFFFFFFFFFFFFFFFFFFFFFFFFFFFFA
:10021400FFFFFFFFFFFFFFFFFFFFFFFFFFFFFFFFEA
:10022400FFFFFFFFFFFFFFFFFFFFFFFFFFFFFFFFDA
:10023400FFFFFFFFFFFFFFFFFFFFFFFFFFFFFFFFCA
:10024400FFFFFFFFFFFFFFFFFFFFFFFFFFFFFFFFBA
:10025400FFFFFFFFFFFFFFFFFFFFFFFFFFFFFFFFAA
:10026400FFFFFFFFFFFFFFFFFFFFFFFF0F93DF9382
:10027400CF93DEB7CDB70E815D9BFECF0CB9CF9186
:10028400DF910F9108950F93DF93CF93FF93EF9333
:10029400DEB7CDB7F985E8850491003029F00F93D6
:1002A400E5DF0F913196F8CFEF91FF91CF91DF9178
:1002B4000F9108954552524F523A20496E76616C1F
:1002C400696420496E70757420466F7220605265AF
:1002D40061644D656D600D000F93DF93CF93FF93C1
:1002E400EF93DEB7CDB70A850B30F9F5F985E885CC
:1002F400329600E00F93FF93EF93E2DECF91DF910C
:100304000F91003091F534960081003271F53196E9
:1003140000E00F93FF93EF93D3DEEF91FF910F91E2
:10032400003019F5DF1720F001F5CE1708F0E9F4D5
:1003340009910F930F9301DF0F9198DF0F9396DFCD
:100344000F910F9100E20F9391DF0F91DF1780F36C
:1003540019F4CE1768F361F308E00F9387DF0F9168
:100364000DE00F9383DF0F9107C002E00F9308EBBA
:100374000F9389DF0F910F91EF91FF91CF91DF914F
:100384000F9108954552524F523A20496E76616C4E
:10039400696420496E70757420466F7220605772CC
:1003A4006974654D656D600D00004D656D6F727902
:1003B40020577269746520436F6D706C6574650DA8
:1003C40000000F931F932F93DF93CF93FF93EF932B
:1003D400DEB7CDB72C852930D0F020FF18C0FB85BF
:1003E400EA85329600E00F93FF93EF9369DECF9195
:1003F400DF910F91003059F434960081003239F4C2
:100404003196FF93EF932750269510E008C003E040
:100414000F9308E80F9337DF0F910F9127C000E087
:100424000F9300810F9306DE0F910F91003019F0A6
:100434000F910F91ECCF13953196121781F7EF912D
:10044400FF9110E000E00F93FF93EF930DDE0F9107
:1004540009930F910F9132961395121799F703E0B0
:100464000F930EEA0F930FDF0F910F91EF91FF910E
:10047400CF91DF912F911F910F9108950F931F93A7
:100484002F933F93DF93CF93FF93EF93FEB7EDB793
:100494000585D485C385F4E0E0EF20E01881329629
:1004A40034913030C1F0311711F03496F9CF3296CF
:1004B400349131961491F32FE12F2196239520172F
:1004C40068F3DEB7CDB734913C87319634913B87DE
:1004D40030E03D8702C031E03D87EF91FF91CF913D
:1004E400DF913F912F911F910F91089500004100DA
:1004F4000524440005A8450005DC470006284900FA
:1005040006544D0006804F0006B4500007485300BF
:1005140007B45400085055000954570009D8000086
:1005240000004300053444000548530005940000CE
:1005340000005300053C0000000052000544000088
:10054400002800000000430005544D000580000011
:100554000000480005644C0005685300056C000069
:100564000025000000240000000052000574000073
:1005740000004100057C000000260000000055003A
:1005840005880000000058000590000000270000C6
:1005940000005300059C00000000520005A4000068
:1005A400004200000000440005B0000000005200BA
:1005B40005B800000000410005CC420005D043000E
:1005C40005D4440005D80000003A000000370000BC
:1005D40000340000003100000000450005E4000084
:1005E4000000410005F4430006104400061C00000E
:1005F4000000520005FC00000000480006084C0002
:10060400060C0000003F0000003E00000000520005
:1006140006180000003C0000000052000624000000
:10062400003D0000000049000630000000004300C7
:10063400063C460006480000000052000644000044
:10064400005B00000000520006500000005A000049
:1006540000004300065C0000000052000664000035
:1006640000003100066C00000000480006784C00D1
:10067400067C000000470000004600000000430024
:1006840006880000000055000690000000004300AA
:10069400069800000000520006A4530006A80000BB
:1006A400005500000000520006B000000054000095
:1006B4000000430006C0530007240000000044006B
:1006C40006CC520006D800000000520006D40000F8
:1006D400005100000000300006E8310006EC320052
:1006E40007200000005C00000000410006F8420002
:1006F400070C00000000480007044C000708000035
:10070400004B0000004A00000000480007184C009D
:10071400071C0000004900000048000000430000DE
:1007240000004300072C00000000430007340000D1
:1007340000004100073C000000004C00074400009A
:10074400005100000000490007544F0007800000DA
:1007540000004E00075C00000000410007704200EA
:100764000774430007784400077C00000039000048
:10077400003600000033000000300000000052008A
:1007840007880000000054000790000000004100AA
:1007940007A4420007A8430007AC440007B00000C8
:1007A400003B00000038000000350000003200006B
:1007B4000000460007C4500007E05200083C000057
:1007C4000000490007CC000000004F0007D40000DF
:1007D4000000520007DC000000500000000043004D
:1007E40007FC44000808480008144C0008184D0091
:1007F400081C5300083000000000520008040000E8
:10080400002D00000000520008100000002F00001E
:10081400005E0000005D00000000430008240000AA
:1008240000005200082C0000005700000000520095
:1008340008380000002E00000000450008440000B5
:1008440000004700084C0000005F00000000430067
:100854000860490008D45700090000000000430064
:10086400086C4E0008A0000000005200087400004C
:10087400000030000884310008883200089C000021
:100884000053000000004100089442000898000052
:10089400004F0000004E000000450000000054001E
:1008A40008A800000000300008B8310008BC32007D
:1008B40008D00000005200000000480008C84C00A6
:1008C40008CC0000004D0000004C00000044000073
:1008D4000000460008E04D0008EC00000000520053
:1008E40008E80000005800000000530008F400006D
:1008F40000004B0008FC000000590000000041000B
:10090400091842000924430009304400093C5300FB
:1009140009480000000052000920000000220000E5
:1009240000005200092C00000020000000005200CA
:10093400093800000056000000005200094400007D
:1009440000230000000052000950000000210000B4
:100954000000420009684300098C440009B05200B9
:1009640009BC0000000052000970000000005200A1
:10097400097800000000480009844C000988000040
:10098400004000000029000000005300099400000A
:1009940000005200099C00000000410009A8420028
:1009A40009AC0000002B0000002A000000005200E7
:1009B40009B80000002C00000000530009C4000026
:1009C4000000450009CC000000004C0009D40000E0
:1009D400004000000000440009E000000000540052
:1009E40009E800000000430009F000000000520084
:1009F40009F80000004100004552524F523A204984
:100A04006E76616C696420496E70757420466F72ED
:100A1400206052656164494F600D00000F93DF93BD
:100A2400CF93FF93EF93DEB7CDB70A850330E0F0A1
:100A3400F985E885329602500F93FF93EF931EDDFC
:100A4400EF91FF910F91003079F400810F930F9390
:100A540074DB0F910BDC0F9309DC0F910F910DE008
:100A64000F9304DC0F9107C009E00F930CEF0F9371
:100A74000ADC0F910F91EF91FF91CF91DF910F91CC
:100A840008954552524F523A20496E76616C69641A
:100A940020496E70757420466F72206057726974B5
:100AA40065494F600D00494F20526567697374654D
:100AB4007220577269746520436F6D706C6574653C
:100AC4000D000F931F93DF93CF93FF93EF93DEB744
:100AD400CDB70B85063010F1FA85E985329600E032
:100AE4000F93FF93EF93C0DA1F910F910F91003092
:100AF400A9F433960B8505500F93FF93EF93BEDC57
:100B0400EF91FF910F91003049F410830AE00F93A5
:100B14000AEA0F93B8DB0F910F9107C00AE00F9315
:100B240006E80F93B0DB0F910F91EF91FF91CF91F6
:100B3400DF911F910F91089546473E3E3E200000ED
:100B4400504552494F44494320434D443A20000004
:100B54004552524F523A20496E76616C6964204383
:100B64006F6D6D616E640D0008E00EBF0FE50DBF83
:100B740000E000BD09E109B908E90AB90EE800BDC1
:100B8400F0E0E0E800270083F1E0EDE000270083D7
:100B94000FE00BBD0FEF0ABD00E109BF00E00FBD80
:100BA4000DE00EBD7894FFCF0F930FB70F93FF9313
:100BB400EF93DF93CF931F932F931CB1F0E0E0E802
:100BC40020811D30B9F40DE00F9350DB0F912F936A
:100BD40000E00F9300E60F9375D00F910F910F91E2
:100BE4000BE00F930CE30F934EDB0F910F91222731
:100BF40020831EC0183071F42030D1F02A95208350
:100C040008E00F9333DB00E20F9330DB0F912EDB10
:100C14000F910EC0203261F0D0E0C0E6C20F002771
:100C2400D01F188323952083012F0F931FDB0F916F
:100C34002F911F91CF91DF91EF91FF910F910FBFF2
:100C44000F9118950F930FB70F931F932F933F9303
:100C5400DF93CF93D1E0CDE02881203051F1D0E073
:100C6400C1E830E010E008810A950030C9F4303062
:100C740011F4E4D131E00BE00F9304E40F9303DBB0
:100C84000F910F91219608810A93229609910F934F
:100C9400DF93CF9317D00F910F910F91239701C03A
:100CA4000883CD5DD04013951217E9F6303009F072
:100CB400EAD1CF91DF913F912F911F910F910FBFF7
:100CC4000F9118950F93DF93CF93FF93EF93DEB7B4
:100CD400CDB70A850F930F930F93003069F1F9850F
:100CE400E885013041F0FF93EF9331960081EF9155
:100CF400FF91003209F50F910F91FF93EF9300815B
:100D0400023711F4E9DA1FC0073711F45ADB1BC0AC
:100D14000F3611F483DE17C0093611F4D2DE13C086
:100D2400003711F43AD00FC00C3611F4ACD00BC01C
:100D3400043611F420D107C00BE00F9304E50F93A0
:100D4400A2DA0F910F910F910F910F91EF91FF91F3
:100D5400CF91DF910F9108954552524F523A204955
:100D64006E76616C696420496E70757420466F728A
:100D74002060526570656174436F6D6D616E64606F
:100D84000D00506572696F64696320436F6D6D6116
:100D94006E642041646465640D000F931F932F9368
:100DA4003F93BF93AF93DF93CF93FF93EF93DEB75C
:100DB400CDB71F85183090F1F1E0EDE000810430EB
:100DC40068F5BE85AD85129630E03F93BF93AF932F
:100DD4004BD92F913F913F91303001F52030F1F004
:100DE4000395008313961550F0E0E1E80A9500306E
:100DF40021F0ED5DF0400A95FACF219321931193F0
:100E040020E03D91319323952117D8F33DE03F93A2
:100E140036E83F9338DA3F913F9107C03DE03F9376
:100E24003CE53F9330DA3F913F91EF91FF91CF91B1
:100E3400DF91AF91BF913F912F911F910F91089531
:100E4400534543202D3E20002C20434D44202D3E6D
:100E540020004552524F523A20604C6973745265D7
:100E6400706561746564436F6D6D616E6473602059
:100E7400446F6573204E6F742054616B6520496E16
:100E84007075740D00000F931F932F933F93DF939E
:100E9400CF93DEB7CDB71B851130C1F5D1E0CDE0DE
:100EA40008810030D1F1D0E0C1E820E03EE03F937A
:100EB40034E43F93E8D93F913F91219639913F9390
:100EC4003F933BD93F91D2D93F93D0D93F913F91A2
:100ED4003EE03F933CE43F93D6D93F913F91199133
:100EE4002F9320E039913F93C1D93F912395211746
:100EF400C8F33DE03F93BAD93F9130EE310FC31BA5
:100F0400D0402F912395201788F207C03EE03F93ED
:100F140036E53F93B8D93F913F91CF91DF913F910F
:100F24002F911F910F9108954552524F523A2049E3
:100F34006E76616C696420496E70757420466F72B8
:100F4400206044656C6574655265706561746564A0
:100F5400436F6D6D616E6473600D0000506572695E
:100F64006F64696320436F6D6D616E642044656CCA
:100F7400657465640D000F931F932F93DF93CF93D4
:100F8400FF93EF93DEB7CDB71C85143091F4FB8546
:100F9400EA85329620E02F93FF93EF9365D80F9163
:100FA4002F912F91203029F4D1E0CDE02881021730
:100FB40040F02FE02F932CE22F9365D92F912F919E
:100FC40035C02A952883021751F1D0E0C1E82F9348
:100FD4000F93003021F0CD5DD0400A95FACF0F91E8
:100FE4002F91201B022FFD2FEC2FED5DF0400030E0
:100FF400B1F02191299321912993119119931F9370
:10100400103021F0219129931A95FACF1F910A9556
:1010140020EE210FC21BD040E21BF040E8CF2FE0AE
:101024002F9320E62F932FD92F912F91EF91FF919A
:10103400CF91DF912F911F910F9108950F931F93DB
:10104400DF93CF93D0E0C0E818811A5F08E00F93D4
:10105400012F0CD90A950030E1F70F9100E20F93AC
:10106400012F04D90A950030E1F70F9108E00F939E
:10107400012FFCD80A950030E1F70F91CF91DF9151
:101084001F910F9108950F931F93DF93CF930BE05C
:101094000F930CE30F93F7D80F910F91D0E0C0E8B2
:1010A4001881103049F0D0E0C0E609910F93DED8E2
:1010B4000F911A951030C9F7CF91DF911F910F91BD
:0210C40008958D
:00000001FF
