:020000020000FC
:040000000C945B0100
:100034000C946B010F93DF93CF93DEB7CDB70E8192
:10004400003398F00A3340F0013478F0073438F084
:10005400013658F0073630F000530E8308C00753BA
:100064000E8305C007550E8302C001E00F83CF91B4
:10007400DF910F9108950F931F93DF93CF93FF9315
:10008400EF93DEB7CDB7FA85E98500E00F930191D0
:100094000F93D0DF1F910F91003081F4110F110FD6
:1000A400110F110F00E00F9300810F93C3DF0F9125
:1000B400102B0F91003011F4198702C001E00B8757
:1000C400EF91FF91CF91DF911F910F9108950F93BD
:1000D4001F932F93DF93CF93FF93EF93DEB7CDB7A7
:1000E400FB85EA8500E00F93FF93EF93C4DF1F9134
:1000F4000F910F91003071F4329600E00F93FF934B
:10010400EF93B9DF2F910F910F91003019F41B87F2
:100114002A8702C001E00C87EF91FF91CF91DF9114
:100124002F911F910F9108950F93DF93CF93DEB713
:10013400CDB70E810A3010F0095C01C0005D0E835A
:10014400CF91DF910F9108950F931F93DF93CF9376
:10015400DEB7CDB70F81102F1F701F93E5DF1F91FE
:100164001F83102F107F12951F93DEDF1F911887B6
:10017400CF91DF911F910F9108950F93DF93CF9348
:10018400DEB7CDB70E815D9BFECF0CB9CF91DF9169
:100194000F9108950F93DF93CF93FF93EF93DEB7FF
:1001A400CDB7F985E8850491003029F00F93E5DF98
:1001B4000F913196F8CFEF91FF91CF91DF910F918D
:1001C40008954552524F523A20496E76616C6964E3
:1001D40020496E70757420466F72206052656164A8
:1001E4004D656D600D000F93DF93CF93FF93EF93F5
:1001F400DEB7CDB70A850B30F9F5F985E885329677
:1002040000E00F93FF93EF9362DFCF91DF910F91A3
:10021400003091F534960081003271F5319600E09A
:100224000F93FF93EF9353DFEF91FF910F91003002
:1002340019F5DF1720F001F5CE1708F0E9F409915C
:100244000F930F9381DF0F9198DF0F9396DF0F9138
:100254000F9100E20F9391DF0F91DF1780F319F4F0
:10026400CE1768F301F408E00F9387DF0F910DE0D8
:100274000F9383DF0F9107C001E00F9306EC0F93F8
:1002840089DF0F910F91EF91FF91CF91DF910F9142
:10029400089546473E3E3E2000004552524F523A92
:1002A40020496E76616C696420436F6D6D616E6484
:1002B4000D0008E00EBF0FE50DBF00E000BD09E131
:1002C40009B908E90AB9F0E0E4EC0027008378945E
:1002D400FFCF0F930FB70F93FF93EF93DF93CF935A
:1002E4001F932F931CB1F0E0E4EC20811D3071F4D6
:1002F4000DE00F9342DF0F910F931F9300E610E080
:100304002DD01F910F91222720831EC0183071F425
:100314002030D1F02A95208308E00F932EDF00E2ED
:100324000F932BDF0F9129DF0F910EC0243661F05C
:10033400D0E0C0E6C20F0027D01F18832395208386
:10034400012F0F931ADF0F912F911F91CF91DF91FE
:10035400EF91FF910F910FBF0F9118954F93CF938A
:10036400DF93223058F1D12FC02F3881C395442711
:10037400D41F4881403211F5323741F42F931F9333
:100384000F9331DF4F914F914F911FC0373711F4C5
:1003940027D01BC0373611F424D017C0333711F4DB
:1003A40021D013C03F3611F41ED00FC0393611F4DA
:1003B4001BD00BC0303711F418D007C042E04F9364
:1003C4004EE94F93E7DE4F914F9142E04F9346E958
:1003D4004F93E0DE4F914F91DF91CF914F9108956C
:0C03E4000895089508950895089508955F
:00000001FF
