:020000020000FC
:040000000C944C020E
:100034000C945C020F93DF93CF93FF93EF93DEB79F
:10004400CDB70885F1E0E0E7E00F00E0F01F049190
:10005400003110F4088702C001E00987EF91FF9195
:10006400CF91DF910F9108950F931F93DF93CF9357
:10007400FF93EF93DEB7CDB7FA85E98500E00F93E0
:1000840001910F93D7DF1F910F91003081F4110F6D
:10009400110F110F110F00E00F9300810F93CADFAE
:1000A4000F91102B0F91003011F4198702C001E059
:1000B4000B87EF91FF91CF91DF911F910F910895DD
:1000C4000F931F932F93DF93CF93FF93EF93DEB799
:1000D400CDB7FB85EA8500E00F93FF93EF93C4DF70
:1000E4001F910F910F91003071F4329600E00F933D
:1000F400FF93EF93B9DF2F910F910F91003019F413
:100104001B872A8702C001E00C87EF91FF91CF91F2
:10011400DF912F911F910F9108950F93DF93CF9348
:10012400DEB7CDB70E810A3010F0095C01C0005D66
:100134000E83CF91DF910F9108950F931F93DF9357
:10014400CF93DEB7CDB70F81102F1F701F93E5DF5C
:100154001F911F83102F107F12951F93DEDF1F91B5
:100164001887CF91DF911F910F910895FFFFFFFF33
:10017400FFFFFFFFFFFFFFFFFFFFFFFFFFFFFFFF8B
:10018400FFFFFFFFFFFFFFFFFFFFFFFFFFFFFFFF7B
:10019400FFFFFFFFFFFFFFFFFFFFFFFF0001020361
:1001A400040506070809FFFFFFFFFFFFFF0A0B0C0A
:1001B4000D0E0F101112131415161718191A1B1CF3
:1001C4001D1E1F20212223FFFFFFFFFFFF0A0B0C30
:1001D4000D0E0F101112131415161718191A1B1CD3
:1001E4001D1E1F20212223FFFFFFFFFFFFFFFFFF34
:1001F400FFFFFFFFFFFFFFFFFFFFFFFFFFFFFFFF0B
:10020400FFFFFFFFFFFFFFFFFFFFFFFFFFFFFFFFFA
:10021400FFFFFFFFFFFFFFFFFFFFFFFFFFFFFFFFEA
:10022400FFFFFFFFFFFFFFFFFFFFFFFFFFFFFFFFDA
:10023400FFFFFFFFFFFFFFFFFFFFFFFFFFFFFFFFCA
:10024400FFFFFFFFFFFFFFFFFFFFFFFFFFFFFFFFBA
:10025400FFFFFFFFFFFFFFFFFFFFFFFFFFFFFFFFAA
:10026400FFFFFFFFFFFFFFFFFFFFFFFF0F93DF9382
:10027400CF93DEB7CDB70E815D9BFECF0CB9CF9186
:10028400DF910F9108950F93DF93CF93FF93EF9333
:10029400DEB7CDB7F985E8850491003029F00F93D6
:1002A400E5DF0F913196F8CFEF91FF91CF91DF9178
:1002B4000F9108954552524F523A20496E76616C1F
:1002C400696420496E70757420466F7220605265AF
:1002D40061644D656D600D000F93DF93CF93FF93C1
:1002E400EF93DEB7CDB70A850B30F9F5F985E885CC
:1002F400329600E00F93FF93EF93E2DECF91DF910C
:100304000F91003091F534960081003271F53196E9
:1003140000E00F93FF93EF93D3DEEF91FF910F91E2
:10032400003019F5DF1720F001F5CE1708F0E9F4D5
:1003340009910F930F9301DF0F9198DF0F9396DFCD
:100344000F910F9100E20F9391DF0F91DF1780F36C
:1003540019F4CE1768F361F308E00F9387DF0F9168
:100364000DE00F9383DF0F9107C002E00F9308EBBA
:100374000F9389DF0F910F91EF91FF91CF91DF914F
:100384000F9108954552524F523A20496E76616C4E
:10039400696420496E70757420466F7220605772CC
:1003A4006974654D656D600D00004D656D6F727902
:1003B40020577269746520436F6D706C6574650DA8
:1003C40000000F931F932F93DF93CF93FF93EF932B
:1003D400DEB7CDB72C852930F0F120FF3CC0FB857A
:1003E400EA85329600E00F93FF93EF9369DECF9195
:1003F400DF910F91003079F534960081003259F580
:100404003196FF93EF932750269510E000E00F9369
:1004140000810F930FDE0F910F910030E1F41395DB
:100424003196121799F7EF91FF9110E000E00F93C6
:10043400FF93EF9319DE0F9109930F910F91329669
:100444001395121799F703E00F930EEA0F931BDF2E
:100454000F910F9107C003E00F9308E80F9313DF88
:100464000F910F91EF91FF91CF91DF912F911F91F8
:100474000F91089546473E3E3E2000004552524F9C
:10048400523A20496E76616C696420436F6D6D61E8
:100494006E640D0008E00EBF0FE50DBF00E000BD67
:1004A40009E109B908E90AB9F0E0E4EC002700839E
:1004B4007894FFCF0F930FB70F93FF93EF93DF93CE
:1004C400CF931F932F931CB1F0E0E4EC20811D30F7
:1004D40071F40DE00F93CADE0F910F931F9300E6A2
:1004E40010E02DD01F910F91222720831EC01830B9
:1004F40071F42030D1F02A95208308E00F93B6DE02
:1005040000E20F93B3DE0F91B1DE0F910EC02436DB
:1005140061F0D0E0C0E6C20F0027D01F18832395F6
:100524002083012F0F93A2DE0F912F911F91CF9162
:10053400DF91EF91FF910F910FBF0F9118954F939A
:10054400CF93DF93223088F1D12FC02F3881C39508
:100554004427D41F4881403241F5323741F42F9368
:100564001F930F93B9DE4F914F914F9125C03737A9
:1005740041F42F931F930F9324DF4F914F914F9189
:100584001BC0373611F423D017C0333711F420D0F1
:1005940013C03F3611F41DD00FC0393611F41AD0F0
:1005A4000BC0303711F417D007C044E04F9340E834
:1005B4004F9369DE4F914F9144E04F9348E74F9337
:1005C40062DE4F914F91DF91CF914F91089508953D
:0805D4000895089508950895AB
:00000001FF
