:020000020000FC
:040000000C94B205A5
:04001C000C941E061C
:100034000C94D0050F93DF93CF93FF93EF93DEB728
:10004400CDB70885F1E0E0E7E00F00E0F01F049190
:10005400003110F4088702C001E00987EF91FF9195
:10006400CF91DF910F9108950F931F93DF93CF9357
:10007400FF93EF93DEB7CDB7FA85E98500E00F93E0
:1000840001910F93D7DF1F910F91003081F4110F6D
:10009400110F110F110F00E00F9300810F93CADFAE
:1000A4000F91102B0F91003011F4198702C001E059
:1000B4000B87EF91FF91CF91DF911F910F910895DD
:1000C4000F931F932F93DF93CF93FF93EF93DEB799
:1000D400CDB7FB85EA8500E00F93FF93EF93C4DF70
:1000E4001F910F910F91003071F4329600E00F933D
:1000F400FF93EF93B9DF2F910F910F91003019F413
:100104001B872A8702C001E00C87EF91FF91CF91F2
:10011400DF912F911F910F9108950F93DF93CF9348
:10012400DEB7CDB70E810A3010F0095C01C0005D66
:100134000E83CF91DF910F9108950F931F93DF9357
:10014400CF93DEB7CDB70F81102F1F701F93E5DF5C
:100154001F911F83102F107F12951F93DEDF1F91B5
:100164001887CF91DF911F910F910895FFFFFFFF33
:10017400FFFFFFFFFFFFFFFFFFFFFFFFFFFFFFFF8B
:10018400FFFFFFFFFFFFFFFFFFFFFFFFFFFFFFFF7B
:10019400FFFFFFFFFFFFFFFFFFFFFFFF0001020361
:1001A400040506070809FFFFFFFFFFFFFF0A0B0C0A
:1001B4000D0E0FFFFFFFFFFFFFFFFFFFFFFFFFFF1E
:1001C400FFFFFFFFFFFFFFFFFFFFFFFFFF0A0B0C17
:1001D4000D0E0FFFFFFFFFFFFFFFFFFFFFFFFFFFFE
:1001E400FFFFFFFFFFFFFFFFFFFFFFFFFFFFFFFF1B
:1001F400FFFFFFFFFFFFFFFFFFFFFFFFFFFFFFFF0B
:10020400FFFFFFFFFFFFFFFFFFFFFFFFFFFFFFFFFA
:10021400FFFFFFFFFFFFFFFFFFFFFFFFFFFFFFFFEA
:10022400FFFFFFFFFFFFFFFFFFFFFFFFFFFFFFFFDA
:10023400FFFFFFFFFFFFFFFFFFFFFFFFFFFFFFFFCA
:10024400FFFFFFFFFFFFFFFFFFFFFFFFFFFFFFFFBA
:10025400FFFFFFFFFFFFFFFFFFFFFFFFFFFFFFFFAA
:10026400FFFFFFFFFFFFFFFFFFFFFFFF0F93DF9382
:10027400CF93DEB7CDB70E815D9BFECF0CB9CF9186
:10028400DF910F9108950F93DF93CF93FF93EF9333
:10029400DEB7CDB7F985E8850491003029F00F93D6
:1002A400E5DF0F913196F8CFEF91FF91CF91DF9178
:1002B4000F9108954552524F523A20496E76616C1F
:1002C400696420496E70757420466F7220605265AF
:1002D40061644D656D600D000F93DF93CF93FF93C1
:1002E400EF93DEB7CDB70A850B30F9F5F985E885CC
:1002F400329600E00F93FF93EF93E2DECF91DF910C
:100304000F91003091F534960081003271F53196E9
:1003140000E00F93FF93EF93D3DEEF91FF910F91E2
:10032400003019F5DF1720F001F5CE1708F0E9F4D5
:1003340009910F930F9301DF0F9198DF0F9396DFCD
:100344000F910F9100E20F9391DF0F91DF1780F36C
:1003540019F4CE1768F361F308E00F9387DF0F9168
:100364000DE00F9383DF0F9107C002E00F9308EBBA
:100374000F9389DF0F910F91EF91FF91CF91DF914F
:100384000F9108954552524F523A20496E76616C4E
:10039400696420496E70757420466F7220605772CC
:1003A4006974654D656D600D00004D656D6F727902
:1003B40020577269746520436F6D706C6574650DA8
:1003C40000000F931F932F93DF93CF93FF93EF932B
:1003D400DEB7CDB72C852930F0F120FF3CC0FB857A
:1003E400EA85329600E00F93FF93EF9369DECF9195
:1003F400DF910F91003079F534960081003259F580
:100404003196FF93EF932750269510E000E00F9369
:1004140000810F930FDE0F910F910030E1F41395DB
:100424003196121799F7EF91FF9110E000E00F93C6
:10043400FF93EF9319DE0F9109930F910F91329669
:100444001395121799F703E00F930EEA0F931BDF2E
:100454000F910F9107C003E00F9308E80F9313DF88
:100464000F910F91EF91FF91CF91DF912F911F91F8
:100474000F9108950F931F932F933F93DF93CF937F
:10048400FF93EF93FEB7EDB70585D485C385F4E0FC
:10049400E8EE20E01881329634913030C1F0311703
:1004A40011F03496F9CF3296349131961491F32F9A
:1004B400E12F21962395201768F3DEB7CDB7349149
:1004C4003C87319634913B8730E03D8702C031E070
:1004D4003D87EF91FF91CF91DF913F912F911F9134
:1004E4000F91089500004100051C440005A045003B
:1004F40005D4470006204900064C4D0006784F00FD
:1005040006AC50000740530007AC5400084855009F
:10051400094C570009D0000000004300052C44009A
:1005240005405300058C0000000053000534000012
:1005340000005200053C00000028000000004300B9
:10054400054C4D000578000000004800055C4C0097
:10055400056053000564000000250000002400002D
:1005640000005200056C000000004100057400000A
:10057400002600000000550005800000000058001F
:1005840005880000002700000000530005940000C7
:1005940000005200059C00000042000000004400DE
:1005A40005A800000000520005B000000000410052
:1005B40005C4420005C8430005CC440005D0000032
:1005C400003A000000370000003400000031000051
:1005D4000000450005DC00000000410005EC43007C
:1005E40006084400061400000000520005F4000050
:1005F4000000480006004C0006040000003F000014
:10060400003E00000000520006100000003C000004
:1006140000005200061C0000003D000000004900DC
:10062400062800000000430006344600064000008F
:1006340000005200063C0000005B00000000520075
:1006440006480000005A0000000043000654000061
:1006540000005200065C0000000031000664000047
:100664000000480006704C000674000000470000BB
:100674000046000000004300068000000000550012
:1006840006880000000043000690000000005200AD
:10069400069C530006A00000005500000000520014
:1006A40006A80000005400000000430006B85300F0
:1006B400071C00000000440006C4520006D00000DD
:1006C4000000520006CC0000005100000000300081
:1006D40006E0310006E4320007180000005C000068
:1006E4000000410006F0420007040000000048003A
:1006F40006FC4C0007000000004B0000004A00000C
:100704000000480007104C000714000000490000D6
:1007140000480000004300000000430007240000DC
:1007240000004300072C00000000410007340000D3
:1007340000004C00073C000000510000000049008C
:10074400074C4F000778000000004E0007540000DB
:100754000000410007684200076C43000770440032
:100764000774000000390000003600000033000068
:100774000030000000005200078000000000540018
:100784000788000000004100079C420007A04300C6
:1007940007A4440007A80000003B00000038000044
:1007A40000350000003200000000460007BC500085
:1007B40007D85200083400000000490007C40000B4
:1007C40000004F0007CC00000000520007D40000D6
:1007D400005000000000430007F4440008004800F3
:1007E400080C4C0008104D000814530008280000A1
:1007F4000000520007FC0000002D00000000520021
:1008040008080000002F0000005E0000005D0000EA
:1008140000004300081C00000000520008240000EF
:10082400005700000000520008300000002E0000B5
:1008340000004500083C0000000047000844000098
:10084400005F0000000043000858490008CC57002E
:1008540008F800000000430008644E0008980000F7
:1008640000005200086C000000003000087C3100D9
:10087400088032000894000000530000000041008A
:10088400088C420008900000004F0000004E000059
:10089400004500000000540008A0000000003000E3
:1008A40008B0310008B4320008C80000005200004B
:1008B4000000480008C04C0008C40000004D0000BF
:1008C400004C0000004400000000460008D84D0021
:1008D40008E400000000520008E000000058000096
:1008E4000000530008EC000000004B0008F4000076
:1008F400005900000000410009104200091C430097
:100904000928440009345300094000000000520043
:100914000918000000220000000052000924000011
:1009240000200000000052000930000000560000C2
:1009340000005200093C00000023000000005200A7
:100944000948000000210000000042000960430043
:100954000984440009A8520009B4000000005200B0
:1009640009680000000052000970000000004800FF
:10097400097C4C00098000000040000000290000B0
:1009840000005300098C000000005200099400008C
:100994000000410009A0420009A40000002B00004F
:1009A400002A00000000520009B00000002C0000E2
:1009B4000000530009BC00000000450009C4000009
:1009C40000004C0009CC000000400000000044007E
:1009D40009D800000000540009E0000000004300B2
:1009E40009E800000000520009F000000041000086
:1009F4004552524F523A20496E76616C69642049DF
:100A04006E70757420466F72206052656164494F40
:100A1400600D00000F93DF93CF93FF93EF93DEB746
:100A2400CDB70A850330E0F0F985E88532960250A7
:100A34000F93FF93EF931EDDEF91FF910F91003021
:100A440079F400810F930F9378DB0F910FDC0F93F0
:100A54000DDC0F910F910DE00F9308DC0F9107C08F
:100A640009E00F9304EF0F930EDC0F910F91EF91B8
:100A7400FF91CF91DF910F9108954552524F523A11
:100A840020496E76616C696420496E7075742046E5
:100A94006F7220605772697465494F600D00494F49
:100AA4002052656769737465722057726974652092
:100AB400436F6D706C6574650D000F931F93DF9326
:100AC400CF93FF93EF93DEB7CDB70B85063010F1CC
:100AD400FA85E985329600E00F93FF93EF93C4DA29
:100AE4001F910F910F910030A9F433960B85055097
:100AF4000F93FF93EF93BEDCEF91FF910F910030C2
:100B040049F410830AE00F9302EA0F93BCDB0F91C0
:100B14000F9107C00AE00F930EE70F93B4DB0F9118
:100B24000F91EF91FF91CF91DF911F910F91089554
:100B340046473E3E3E200000504552494F444943FB
:100B440020434D443A2000004552524F523A204926
:100B54006E76616C696420436F6D6D616E640D0027
:100B640008E00EBF0FE50DBF00E000BD09E109B9C3
:100B740008E90AB9F0E0E0E800270083F1E0EDE0DD
:100B8400002700830FE00BBD0FEF0ABD00E109BF92
:100B940000E00FBD0DE00EBD7894FFCF0F930FB7AB
:100BA4000F93FF93EF93DF93CF931F932F931CB176
:100BB400F0E0E0E820811D30B9F40DE00F9356DB3E
:100BC4000F912F9300E00F9300E60F9375D00F91D0
:100BD4000F910F910BE00F9304E30F9354DB0F91EC
:100BE4000F91222720831EC0183071F42030D1F0D9
:100BF4002A95208308E00F9339DB00E20F9336DB5C
:100C04000F9134DB0F910EC0203261F0D0E0C0E6CA
:100C1400C20F0027D01F188323952083012F0F9321
:100C240025DB0F912F911F91CF91DF91EF91FF91D0
:100C34000F910FBF0F9118950F930FB70F931F9339
:100C44002F933F93DF93CF93D1E0CDE028812030E1
:100C540051F1D0E0C1E830E010E008810A9500309D
:100C6400C9F4303011F4E4D131E00BE00F930CE31C
:100C74000F9309DB0F910F91219608810A93229615
:100C840009910F93DF93CF9317D00F910F910F9189
:100C9400239701C00883CD5DD04013951217E9F660
:100CA400303009F0EAD1CF91DF913F912F911F911C
:100CB4000F910FBF0F9118950F93DF93CF93FF936D
:100CC400EF93DEB7CDB70A850F930F930F930030E0
:100CD40069F1F985E885013041F0FF93EF9331968E
:100CE4000081EF91FF91003209F50F910F91FF936D
:100CF400EF930081023711F4EFDA1FC0073711F4C4
:100D040060DB1BC00F3611F485DE17C0093611F401
:100D1400D4DE13C0003711F43AD00FC00C3611F4EE
:100D2400ACD00BC0043611F420D107C00BE00F93F4
:100D34000CE40F93A8DA0F910F910F910F910F917B
:100D4400EF91FF91CF91DF910F9108954552524F4A
:100D5400523A20496E76616C696420496E707574EC
:100D640020466F722060526570656174436F6D6DCB
:100D7400616E64600D00506572696F64696320433D
:100D84006F6D6D616E642041646465640D000F9342
:100D94001F932F933F93BF93AF93DF93CF93FF930F
:100DA400EF93DEB7CDB71F85183090F1F1E0EDE099
:100DB4000081043068F5BE85AD85129630E03F931E
:100DC400BF93AF9351D92F913F913F91303001F5AB
:100DD4002030F1F00395008313961550F0E0E1E81C
:100DE4000A95003021F0ED5DF0400A95FACF219389
:100DF4002193119320E03D91319323952117D8F34A
:100E04003DE03F933AE73F933EDA3F913F9107C07D
:100E14003DE03F9330E53F9336DA3F913F91EF91C8
:100E2400FF91CF91DF91AF91BF913F912F911F918E
:100E34000F910895534543202D3E20002C20434D0F
:100E440044202D3E20004552524F523A20604C69B6
:100E540073745265706561746564436F6D6D616E22
:100E640064736020446F6573204E6F742054616B0B
:100E74006520496E7075740D00000F931F932F93B6
:100E84003F93DF93CF93DEB7CDB71B851130C1F508
:100E9400D1E0CDE008810030D1F1D0E0C1E820E01C
:100EA4003EE03F9338E33F93EED93F913F91219643
:100EB40039913F933F9341D93F91D8D93F93D6D9A4
:100EC4003F913F913EE03F9330E43F93DCD93F9123
:100ED4003F9119912F9320E039913F93C7D93F91C6
:100EE40023952117C8F33DE03F93C0D93F9130EEDD
:100EF400310FC31BD0402F912395201788F207C0D0
:100F04003EE03F933AE43F93BED93F913F91CF9166
:100F1400DF913F912F911F910F9108954552524FA8
:100F2400523A20496E76616C696420496E7075741A
:100F340020466F72206044656C6574655265706507
:100F440061746564436F6D6D616E6473600D000060
:100F5400506572696F64696320436F6D6D616E647F
:100F64002044656C657465640D000F931F932F9383
:100F7400DF93CF93FF93EF93DEB7CDB71C85143087
:100F840091F4FB85EA85329620E02F93FF93EF934B
:100F94006BD80F912F912F91203029F4D1E0CDE01F
:100FA4002881021740F02FE02F9320E22F936BD972
:100FB4002F912F9135C02A952883021751F1D0E043
:100FC400C1E82F930F93003021F0CD5DD0400A95F6
:100FD400FACF0F912F91201B022FFD2FEC2FED5DE7
:100FE400F0400030B1F0219129932191299311917E
:100FF40019931F93103021F0219129931A95FACF58
:101004001F910A9520EE210FC21BD040E21BF04035
:10101400E8CF2FE02F9324E52F9335D92F912F91EB
:10102400EF91FF91CF91DF912F911F910F9108952F
:101034000F931F93DF93CF93D0E0C0E818811A5F1A
:1010440008E00F93012F12D90A950030E1F70F91B0
:1010540000E20F93012F0AD90A950030E1F70F91AE
:1010640008E00F93012F02D90A950030E1F70F91A0
:10107400CF91DF911F910F9108950F931F93DF93E9
:10108400CF930BE00F9304E30F93FDD80F910F91CF
:10109400D0E0C0E81881103049F0D0E0C0E60991F2
:1010A4000F93E4D80F911A951030C9F7CF91DF91BF
:0610B4001F910F91089549
:00000001FF
